:100000000C942A000C943C000C943C000C943C0092
:100010000C943C000C943C000C943C000C943C0070
:100020000C943C000C948C000C943C000C943C0010
:100030000C943C000C943C000C943C000C943C0050
:100040000C943C000C943C000C943C000C943C0040
:100050000C943C0011241FBECFE5D8E0DEBFCDBF1D
:1000600020E0A0E6B0E001C01D92A636B207E1F79D
:100070000E94D2010C941B020C9400006AE00E94C2
:100080000F02292F30E1839FC0011124822B089594
:10009000982F92959F708F702AE0929F800D112467
:1000A000089598E087FF0DC0929A959A28EC2A95BA
:1000B000F1F7959828EC2A95F1F7880F915091F770
:1000C00008959298F2CFCF93DF93D62FC42F0E943A
:1000D00051008D2F0E9451008C2F0E945100949A44
:1000E00088EC8A95F1F7949888EC8A95F1F7DF917E
:1000F000CF91089584B38C6084BBA798A698A598E7
:1001000085B3816E85BB8CE781BB969A93980895E1
:1001100081E683BFBB9A08951F920F920FB60F928C
:1001200011248F939F9385B39CE0892785BB809191
:1001300065008F5F8C33F1F08093650080916400DF
:100140008C3339F480916300109264008F5F809348
:10015000630080916300883111F4109263008AE19A
:1001600099EE9DBD8CBD9F918F910F900FBE0F900A
:100170001F90189510926500809164008F5F8093A6
:100180006400DCCF8AE199EE9DBD8CBD1FBC85E08B
:100190008EBD84E089BF789408958AB188618AB958
:1001A00080B5866880BD82E189B910BC08955D9BE9
:1001B000FECF8CB908955F9BFECF8CB108950F934D
:1001C0001F93CF938C01C0E0F801EC0FF11D8081EB
:1001D000811104C0CF911F910F9108950E94D70003
:1001E000CF5FF2CF11B886E180B9089594EA96BF47
:1001F00006B607FEFDCF91B1987F983071F483B9B0
:1002000084E886BF06B607FEFDCF81B1887F8831BE
:1002100031F0803231F083E0089580E0089581E08C
:10022000089582E0089594EA96BF06B607FEFDCFD2
:1002300091B1987F903171F483B984E886BF06B696
:1002400007FEFDCF81B1887F803431F0883431F0F2
:1002500083E0089580E0089581E0089582E00895A4
:1002600083B984E886BF06B607FEFDCF81B1887FDB
:10027000883221F0803321F082E0089580E00895F3
:1002800081E0089584EC86BF06B607FEFDCF83B1FA
:10029000089584E886BF06B607FEFDCF83B10895B2
:1002A00084E986BF06B604FCFDCF08951F93CF9363
:1002B000DF93C82FD62F142F80EA0E94F60082E029
:1002C0000E943001812F0E943E000E9430018D2F3C
:1002D0000E943E000E9430018C2F0E943E000E942E
:1002E0003001DF91CF911F910C945001CF93DF9398
:1002F000809165000E943E00D82F809164000E948A
:100300003E00C82F809163000E943E004D2F6C2F4D
:100310000E94630083B380788093620083B380740B
:100320008093610083B380728093600081110FC05D
:10033000809165008F5F8C3361F1809365004091FF
:10034000650060916400809163000E945601809175
:100350006100811107C0809164008F5F8C33E1F0F0
:100360008093640080916200811107C080916300D6
:100370008F5F8831A1F0809363002FEB84ED91E0D3
:10038000215080409040E1F700C00000DF91CF9104
:10039000089510926500D3CF10926400E3CF1092BD
:1003A0006300EBCF0E94CD000E94F2000E947A0011
:1003B0000E9488000E94C20080E28CBF40916500CC
:1003C00060916400809163000E9463002FE78FE4D6
:1003D00092E1215080409040E1F700C0000080EAA7
:1003E0000E94F60082E00E94300181EA0E9413011F
:1003F0000E9442010E944800809365000E944201D1
:100400000E944800809364000E9449010E944800B5
:10041000809363000E9450010E947601FDCF991BDA
:1004200079E004C0991F961708F0961B881F7A95EB
:0A043000C9F780950895F894FFCFF6
:00000001FF
